:100000000C9434000C9446000C9446000C9446006A
:100010000C9446000C9446000C9446000C94460048
:100020000C9446000C9446000C9446000C94460038
:100030000C9446000C9446000C9446000C94460028
:100040000C9446000C9446000C9446000C94460018
:100050000C9446000C9446000C9446000C94460008
:100060000C9446000C94460011241FBECFEFD8E03C
:10007000DEBFCDBF21E0A0E0B1E001C01D92A13004
:10008000B207E1F70E94BC000C9406010C9400003A
:10009000E9EBF0E080818E7F808380818D7F80839B
:1000A00081E18093B800E4E6F0E080818F7780837F
:1000B000089584EA8093BC00ECEBF0E08081882313
:1000C000ECF79091B900987F81E0983009F480E0D6
:1000D000089584EA8093BC00ECEBF0E080818823F3
:1000E000ECF79091B900987F81E0903109F480E0BD
:1000F0000895ECEBF0E08081846980830895880F97
:10010000662319F0816040E401C048E18093BB00A0
:1001100084E88093BC00ECEBF0E080818823ECF76E
:100120002091B900287F30E050E081E024173507A6
:1001300009F480E008958093BB0084E88093BC00BC
:10014000ECEBF0E080818823ECF79091B900987F88
:1001500081E0983209F480E0089520E4829FC00194
:10016000112484688093BC00ECEBF0E0808188234C
:10017000ECF78091BB000895F8940E9448007894B1
:100180008FE39CE90197F1F700C000000E9459003D
:100190008111FCCF60E088E60E947F008111FACFD8
:1001A00080E00E949B008111FBCF80E00E949B00B9
:1001B0008111FBCF0E9479009AEA24ED3CE181E0B5
:1001C0009150204030408040D9F700000E945900F3
:1001D0008111FCCF60E088E60E947F008111FACF98
:1001E00080E00E949B008111FBCF0E946900811179
:1001F000FCCF61E088E60E947F008111FACF0E9467
:10020000AD00809300010E947900FFCFF894FFCFEA
:00000001FF
